{
  "_format": "hh-sol-artifact-1",
  "contractName": "TreasureBox",
  "sourceName": "contracts/TreasureBox.sol",
  "abi": [
    {
      "inputs": [
        {
          "internalType": "bytes32",
          "name": "_secret",
          "type": "bytes32"
        }
      ],
      "stateMutability": "payable",
      "type": "constructor"
    },
    {
      "inputs": [
        {
          "internalType": "string",
          "name": "message",
          "type": "string"
        },
        {
          "internalType": "bytes32",
          "name": "salt",
          "type": "bytes32"
        }
      ],
      "name": "claim",
      "outputs": [],
      "stateMutability": "nonpayable",
      "type": "function"
    },
    {
      "inputs": [],
      "name": "claimed",
      "outputs": [
        {
          "internalType": "bool",
          "name": "",
          "type": "bool"
        }
      ],
      "stateMutability": "view",
      "type": "function"
    },
    {
      "inputs": [
        {
          "internalType": "bytes32",
          "name": "hash",
          "type": "bytes32"
        }
      ],
      "name": "commit",
      "outputs": [],
      "stateMutability": "nonpayable",
      "type": "function"
    },
    {
      "inputs": [
        {
          "internalType": "bytes32",
          "name": "",
          "type": "bytes32"
        }
      ],
      "name": "commitments",
      "outputs": [
        {
          "internalType": "address",
          "name": "",
          "type": "address"
        }
      ],
      "stateMutability": "view",
      "type": "function"
    },
    {
      "inputs": [],
      "name": "owner",
      "outputs": [
        {
          "internalType": "address",
          "name": "",
          "type": "address"
        }
      ],
      "stateMutability": "view",
      "type": "function"
    },
    {
      "inputs": [
        {
          "internalType": "bytes32",
          "name": "_secret",
          "type": "bytes32"
        }
      ],
      "name": "reinit",
      "outputs": [],
      "stateMutability": "nonpayable",
      "type": "function"
    },
    {
      "inputs": [],
      "name": "secret",
      "outputs": [
        {
          "internalType": "bytes32",
          "name": "",
          "type": "bytes32"
        }
      ],
      "stateMutability": "view",
      "type": "function"
    },
    {
      "stateMutability": "payable",
      "type": "receive"
    }
  ],
  "bytecode": "0x608060405260405162000e7138038062000e71833981810160405281019062000029919062000118565b600034116200006f576040517f08c379a00000000000000000000000000000000000000000000000000000000081526004016200006690620001ab565b60405180910390fd5b336000806101000a81548173ffffffffffffffffffffffffffffffffffffffff021916908373ffffffffffffffffffffffffffffffffffffffff160217905550806001819055506000600260006101000a81548160ff02191690831515021790555050620001cd565b600080fd5b6000819050919050565b620000f281620000dd565b8114620000fe57600080fd5b50565b6000815190506200011281620000e7565b92915050565b600060208284031215620001315762000130620000d8565b5b6000620001418482850162000101565b91505092915050565b600082825260208201905092915050565b7f596f7520666f72676f7420746865207265776172640000000000000000000000600082015250565b6000620001936015836200014a565b9150620001a0826200015b565b602082019050919050565b60006020820190508181036000830152620001c68162000184565b9050919050565b610c9480620001dd6000396000f3fe6080604052600436106100745760003560e01c80638da5cb5b1161004e5780638da5cb5b1461010f578063d1efd30d1461013a578063e834a83414610165578063f14fcbc8146101905761007b565b8063599f451d14610080578063795443f2146100a9578063839df945146100d25761007b565b3661007b57005b600080fd5b34801561008c57600080fd5b506100a760048036038101906100a29190610680565b6101b9565b005b3480156100b557600080fd5b506100d060048036038101906100cb91906107f3565b6102af565b005b3480156100de57600080fd5b506100f960048036038101906100f49190610680565b61047f565b6040516101069190610890565b60405180910390f35b34801561011b57600080fd5b506101246104b2565b6040516101319190610890565b60405180910390f35b34801561014657600080fd5b5061014f6104d6565b60405161015c91906108ba565b60405180910390f35b34801561017157600080fd5b5061017a6104dc565b60405161018791906108f0565b60405180910390f35b34801561019c57600080fd5b506101b760048036038101906101b29190610680565b6104ef565b005b60008054906101000a900473ffffffffffffffffffffffffffffffffffffffff1673ffffffffffffffffffffffffffffffffffffffff163373ffffffffffffffffffffffffffffffffffffffff1614610247576040517f08c379a000000000000000000000000000000000000000000000000000000000815260040161023e90610968565b60405180910390fd5b6000471161028a576040517f08c379a0000000000000000000000000000000000000000000000000000000008152600401610281906109d4565b60405180910390fd5b806001819055506000600260006101000a81548160ff02191690831515021790555050565b600260009054906101000a900460ff16156102ff576040517f08c379a00000000000000000000000000000000000000000000000000000000081526004016102f690610a40565b60405180910390fd5b60008282604051602001610314929190610af2565b6040516020818303038152906040528051906020012090503373ffffffffffffffffffffffffffffffffffffffff166003600083815260200190815260200160002060009054906101000a900473ffffffffffffffffffffffffffffffffffffffff1673ffffffffffffffffffffffffffffffffffffffff16146103cd576040517f08c379a00000000000000000000000000000000000000000000000000000000081526004016103c490610b66565b60405180910390fd5b600154838051906020012014610418576040517f08c379a000000000000000000000000000000000000000000000000000000000815260040161040f90610bd2565b60405180910390fd5b6001600260006101000a81548160ff0219169083151502179055503373ffffffffffffffffffffffffffffffffffffffff166108fc479081150290604051600060405180830381858888f19350505050158015610479573d6000803e3d6000fd5b50505050565b60036020528060005260406000206000915054906101000a900473ffffffffffffffffffffffffffffffffffffffff1681565b60008054906101000a900473ffffffffffffffffffffffffffffffffffffffff1681565b60015481565b600260009054906101000a900460ff1681565b600260009054906101000a900460ff161561053f576040517f08c379a000000000000000000000000000000000000000000000000000000000815260040161053690610a40565b60405180910390fd5b600073ffffffffffffffffffffffffffffffffffffffff166003600083815260200190815260200160002060009054906101000a900473ffffffffffffffffffffffffffffffffffffffff1673ffffffffffffffffffffffffffffffffffffffff16146105e1576040517f08c379a00000000000000000000000000000000000000000000000000000000081526004016105d890610c3e565b60405180910390fd5b336003600083815260200190815260200160002060006101000a81548173ffffffffffffffffffffffffffffffffffffffff021916908373ffffffffffffffffffffffffffffffffffffffff16021790555050565b6000604051905090565b600080fd5b600080fd5b6000819050919050565b61065d8161064a565b811461066857600080fd5b50565b60008135905061067a81610654565b92915050565b60006020828403121561069657610695610640565b5b60006106a48482850161066b565b91505092915050565b600080fd5b600080fd5b6000601f19601f8301169050919050565b7f4e487b7100000000000000000000000000000000000000000000000000000000600052604160045260246000fd5b610700826106b7565b810181811067ffffffffffffffff8211171561071f5761071e6106c8565b5b80604052505050565b6000610732610636565b905061073e82826106f7565b919050565b600067ffffffffffffffff82111561075e5761075d6106c8565b5b610767826106b7565b9050602081019050919050565b82818337600083830152505050565b600061079661079184610743565b610728565b9050828152602081018484840111156107b2576107b16106b2565b5b6107bd848285610774565b509392505050565b600082601f8301126107da576107d96106ad565b5b81356107ea848260208601610783565b91505092915050565b6000806040838503121561080a57610809610640565b5b600083013567ffffffffffffffff81111561082857610827610645565b5b610834858286016107c5565b92505060206108458582860161066b565b9150509250929050565b600073ffffffffffffffffffffffffffffffffffffffff82169050919050565b600061087a8261084f565b9050919050565b61088a8161086f565b82525050565b60006020820190506108a56000830184610881565b92915050565b6108b48161064a565b82525050565b60006020820190506108cf60008301846108ab565b92915050565b60008115159050919050565b6108ea816108d5565b82525050565b600060208201905061090560008301846108e1565b92915050565b600082825260208201905092915050565b7f5065726d697373696f6e2064656e696564000000000000000000000000000000600082015250565b600061095260118361090b565b915061095d8261091c565b602082019050919050565b6000602082019050818103600083015261098181610945565b9050919050565b7f596f7520666f72676f7420746865207265776172640000000000000000000000600082015250565b60006109be60158361090b565b91506109c982610988565b602082019050919050565b600060208201905081810360008301526109ed816109b1565b9050919050565b7f416c726561647920636c61696d65640000000000000000000000000000000000600082015250565b6000610a2a600f8361090b565b9150610a35826109f4565b602082019050919050565b60006020820190508181036000830152610a5981610a1d565b9050919050565b600081519050919050565b600081905092915050565b60005b83811015610a94578082015181840152602081019050610a79565b60008484015250505050565b6000610aab82610a60565b610ab58185610a6b565b9350610ac5818560208601610a76565b80840191505092915050565b6000819050919050565b610aec610ae78261064a565b610ad1565b82525050565b6000610afe8285610aa0565b9150610b0a8284610adb565b6020820191508190509392505050565b7f446964206e6f7420636f6d6d6974000000000000000000000000000000000000600082015250565b6000610b50600e8361090b565b9150610b5b82610b1a565b602082019050919050565b60006020820190508181036000830152610b7f81610b43565b9050919050565b7f57726f6e6720616e737765720000000000000000000000000000000000000000600082015250565b6000610bbc600c8361090b565b9150610bc782610b86565b602082019050919050565b60006020820190508181036000830152610beb81610baf565b9050919050565b7f416c726561647920757365640000000000000000000000000000000000000000600082015250565b6000610c28600c8361090b565b9150610c3382610bf2565b602082019050919050565b60006020820190508181036000830152610c5781610c1b565b905091905056fea26469706673582212208176258a54d97b71d060c2f386cd72c298e0f56ff1ef156c9335628093a17c2964736f6c63430008110033",
  "linkReferences": {},
  "deployedLinkReferences": {}
}